:020000040800F2
:10600000081200207DE8000857B707082F9C0908F0
:10601000E9E7070857B7070857B7070857B707084A
:1060200057B7070857B7070857B70708410D0C08B7
:1060300057B7070824680C08D10C0C08CF5F0C0870
:10604000FDE2000857B7070857B7070857B7070812
:1060500057B7070857B7070857B7070857B70708CC
:1060600057B70708F92A03088344090857B70708F0
:1060700057B70708652A03087F44090845E8000860
:1060800057B7070857B7070857B7070857B707089C
:1060900057B707086DEF000857B7070857B7070845
:1060A00057B7070879EB000859EB000857B70708FE
:1060B00057B707081D980708C9A20708BF030C08AF
:1060C000BB030C08599A0708D5030C08C3030C0836
:1060D00099A20708C7030C0809A3070875A30708B6
:1060E00057B7070857B7070857B7070857B707083C
:1060F000F5DD070857B7070857B7070857B7070868
:1061000057B7070857B7070857B7070857B707081B
:1061100057B7070857B7070857B7070857B707080B
:1061200057B7070857B7070857B7070857B70708FB
:1061300057B7070857B7070857B7070857B70708EB
:1061400057B70708CD2C010857B70708235F0C087D
:10615000317C070857B70708A1030C08A7030C08F0
:1061600057B7070857B7070857B7070857B70708BB
:10617000F0B5114A114C124E00F00105E3695F07BA
:1061800013D40DB9334213D103EA00078F4207D16C
:106190000B4A1A40002A0CBF00206FF00100F0BD2E
:1061A000013AEBD16FF00200F9E74FF0FF30F6E76C
:1061B0006FF00100F3E700BF8096980000000350E5
:1061C0000200010070B50B4BD96911F480310DD17B
:1061D00001244FF48072084E084DF46020462C6470
:1061E0001A61FFF7C5FF3464EC6070BD6FF0010009
:1061F000FBE700BF000003500010035000200350D5
:106200004FF4803238B50E4B0E4C9A66E56941F674
:10621000713315400122E3630B4B0021DA60022346
:10622000606121202361FFF7A3FF10B92120FFF750
:106230009FFF0122054BDA600DB10023E36338BDF7
:106240000090005000000350001003500020035045
:1062500070B5134C6061E3695B071ED40E4656F8B7
:10626000043B8D18A361AE420BD1042300212120F1
:106270002361FFF77DFF58B9BDE870402120FFF78B
:1062800077BF08210846FFF773FF10B1042323618D
:1062900070BD56F8043BA361E5E74FF0FF30F7E728
:1062A000000003502DE9F84315464FF48032184B97
:1062B00089469A6603F51C33DF690646174041F6A6
:1062C0007132DA63012203F58053DFF84C80DA6023
:1062D00055B9284601220F4BDA601FB10022A3F501
:1062E0000053DA63BDE8F88306F5005404EA0804B5
:1062F000A41BAC4228BF2C46494622463046FFF735
:10630000A7FF0028E6D12644A1442D1BE0E700BFEB
:10631000009000500020035000E0FFFF000000004C
:10632000000000000000000000000000000000006D
:10633000013800D0FCE770472DE9F84F40220021DA
:106340002948B4F0CFFE302200212848B4F0CAFE1C
:1063500000209FED237B264B264E274ADFF888B08E
:10636000DFF8ACA0DFF8AC90DFF8AC80DFF8ACE091
:106370001E4FA3F1180C2425002145430BEB4014BC
:1063800043E9054A0CEB050443E9039843F8181C5C
:1063900043F804EC21772162182404FB007442F8CE
:1063A000144C164C42F8181C42F8104C144CA6EC35
:1063B000027B42F80C4C134C43F8241B42F8084C67
:1063C000114C42F8044C114C2C442177216242F8C4
:1063D000241B08B1BDE8F88F0120CCE7AFF30080A3
:1063E0000000000000000000D0760120A07601200F
:1063F00070760120C014002028760120B98201089F
:1064000033E9070851E9070887E9070810760120F2
:10641000E182010855E907081BE9070859E907085F
:106420002DE9F043022089B0BBF0ECFE00B9FEE795
:10643000654E336803B9FEE71020BBF0E3FE336816
:10644000624C9B880DF10B018DF80B300123206805
:106450001A46B9F0EEF99DF80B203168023A002394
:10646000096892B22068B9F0E4F93368584993F8A2
:1064700029208DF814200022CDE906121B681D7812
:1064800015F020051FD02068B8F073FF002851D008
:106490002068B8F06EFF60F047FE02460B4646A14A
:1064A000D1E9000160F0E4FF80460798894660F07A
:1064B0003BFE02460B464046494660F0F9FC61F05F
:1064C0005DF9012507902068B8F061FF9DF80B3059
:1064D00098B3981DC00060F037FE39A3D3E90023BC
:1064E00060F09CFE804620688946B8F050FF60F05E
:1064F0001BFE02460B464046494660F0B9FF804607
:106500000798894660F010FE02460B464046494611
:1065100060F0CEFC61F032F907902020BBF072FEF3
:1065200080B14FF48050BBF061FF78F030FE09B0CD
:10653000BDE8F0830798C030C3E70798063300EB47
:106540004310E9E7336805AF5A69FAB91020BBF088
:1065500059FE98B1079B326803F5FA73117E0793D1
:106560001C4B99701C490978D970917900972A467B
:106570002068B8F02DFD0028D3D1D8E731683B461C
:106580002A4689792068B8F00DFDF4E71969ADF85D
:1065900010000A4496211148A2F59B7281809979D6
:1065A000CDE90007039220682A4603ABB8F01BFD33
:1065B000E1E700BFAFF300800000000060E3664148
:1065C0000000000080842E41007801205C770120CB
:1065D00020A10700B0190220E6250220A4190220FC
:1065E000F7B50120BBF00EFE0446002840F0B58050
:1065F0005D4D5E4B5E4EC5E9003005F11003AB60AA
:1066000041F60B233060B38012F0C8FE594B1B6A71
:10661000DB0700D4FEE72146284669F0B1FF0446B7
:1066200000B9FEE76BF074FB00B1FEE7204652496B
:106630006AF0AEFE00B1FEE702212046B8F07AFE15
:1066400000B1FEE720464D496BF04AF900B1FEE784
:1066500001212046B9F096FA00B1FEE7012120465B
:10666000B9F0A6FA074600B1FEE701463C224448CD
:10667000B4F038FD80233A46204605F11401B9F004
:10668000EEF8802800D0FEE73E4D0120B8F085FCF2
:1066900033A3D3E900232C602046CDE900234FF03B
:1066A000FF324FF0FF33B8F005FF014600B1FEE7BF
:1066B0002F4812F08DF901210846BBF08FFD012112
:1066C0002868B8F057FD044600B1FEE72E4B2F4A6C
:1066D000988018602E4B1A60FF2298802D4B83F80B
:1066E00028202D4A98801A602C4A6FF06300DA60E7
:1066F00018F0ACFF33790B2B11D873790A2B0ED914
:10670000274B1E600CF07EFA204612F039FE08225C
:1067100028681146B8F0E8FE044608B1FEE7FEE737
:1067200012F026FE1F4B10211F481C7078F051FEFE
:1067300000B9FEE71D491C4878F05DFE00B9FEE790
:1067400010218C201A4A77F0EAFF00B1FEE71948C1
:1067500003B0BDE8F0407EF09EBA03B0F0BD00BFCC
:106760000AE020FFE20300006C770120B1240C084E
:10677000647701200080E00F0700110060880C089A
:106780001C7701205C770120401500200FFE0120BE
:1067900010150020E01400208FFD0120D0140020EF
:1067A0006077012091FE012014780120635F0C08BE
:1067B0000478012054880C082DE9F04F2DED028B50
:1067C000884204460D4690461E4697B00AD10346BD
:1067D00001211D202E4A17B0BDEC028BBDE8F04F01
:1067E000ADF0E8BA9FED288B0DF10C092A2148463F
:1067F00005AF47F0EDFD99E8030087E80300DFF8F7
:1068000094A0DFF894B0BDF81620BDF814309A4279
:1068100004D117B0BDEC028BBDE8F08F384647F0CD
:10682000B3FD0AAB814696E8030083E8030009AB99
:1068300008938DF824408DF825508DF82680CDF8EA
:106840001CA03FF083FA00230E938DF840308DF8A2
:1068500051302A23ADF830904FF001090D930CAA66
:106860006B4607A98DED128B8DF850909FF06AF959
:10687000034620B15A4649461D20ADF09BFA3846E2
:10688000A4F0D8FBBFE700BF00000000000000003C
:106890000CF50C0818F60C084CF50C08000000006C
:1068A0002DE9F0472DED028B9FED2B8B9CB00DF168
:1068B00008082A21054604AC404616461F4647F004
:1068C00087FD98E8030084E80300DFF89480DFF890
:1068D0009490BDF81220BDF810309A4204D11CB03B
:1068E000BDEC028BBDE8F087204647F04DFD26A9A0
:1068F00031F8083B0DF1380C8246ADF830300FC945
:106900008CE80F0008AB0793CDE90A670895CDF82E
:1069100018803FF01BFA00232A228DF858308DF89A
:1069200069300223ADF848A04FF0010ACDE91323E6
:1069300006A96B4612AA8DED188B8DF868A09FF002
:1069400001F9034620B14A4651461D20ADF032FA06
:106950002046A4F06FFBBCE7000000000000000030
:1069600040F60C08A3F50C082DE9F04F2DED028B35
:10697000083085B00F469146DDF85080ADF03DFA05
:106980000446002800F09A806E4600259FED4E8B4D
:106990004FF0010B41F2A45A10AB0FCB86E80F0069
:1069A0004B4BC4E902552360C4E90455C4E90655BC
:1069B0002C336360474B04F1480C0FCB84ED0E8BF6
:1069C000C4E90C5584F8205084F840508CE80F003E
:1069D000414B84F858B0A4F85AA0E56584ED188BB3
:1069E000A36604F17C03C4E91F333C4B1022C4F8B6
:1069F00090302946C4E91B55C4E9255584F87450E4
:106A0000C4F88450C4F89C5004F1A000B4F06AFBB0
:106A100084ED2E8B84F8B0B0A4F8B2A0C4F8B450C2
:106A200004F1C000ADF0DCFE4AF6C873C82284ED64
:106A3000368B84ED388BC4E93A2304F58273C4E9BC
:106A40003E55C4E94133A4F8CC5084F8CE50A4F8A4
:106A5000D05084F80051C4F80C513B68A3607B68A7
:106A6000E360BB682361FB6863613B69A3617B6989
:106A7000E3613B7E84F8203033B104F1240307F155
:106A80001C0207CA83E80700384693F038FFA8B90C
:106A9000B9F1000F12D0B8F1000F0FD003CE337848
:106AA000C4F8309084F84030012384F8F830231D76
:106AB000A063E163C4F88880C4F89C30204605B028
:106AC000BDEC028BBDE8F08F00000000000000006C
:106AD000B41B0D0890AE012000DB0D08A41B0D08AF
:106AE0002DE9F04F2DED028B00240025CBB0994607
:106AF000CDE92E450023CDE93045CDE934454FF6AB
:106B0000FF74DFF898A2064688461746CDE90C3395
:106B10008DF8C8303393CDF8D8A04894A2B3054679
:106B200000F53474A54206D10B2420464BB0BDECD1
:106B3000028BBDE8F08F284694F006F808B1903536
:106B4000F0E79FED8F8BBDF85C318DF8C880ADF814
:106B500020318D4B4FF4C8710E93002309A8CDE965
:106B600009330F93CDF870A00B9398F03BFE099C6E
:106B700014BB0B240BA893F09EFD0AA893F09BFD79
:106B800009A893F098FDD0E7A6F045FD044608B9A2
:106B9000AC24CAE706F534752846A3F093FFB4F891
:106BA00082308DF8C880ADF8203121460CA894EDD4
:106BB000028BA6F09DFCCCE74FF4C8710AA898F0B0
:106BC00011FEDDF828A0BAF1000FD2D04FF4C87141
:106BD0000BA898F007FE0B9A002ACAD04FF4C8738E
:106BE0004146CDE91332304610AA1094CDE9113A4E
:106BF0001593A6F070FD04460028BBD141463046EF
:106C000012AAA6F04AFD04460028B3D141463046F8
:106C100014AAA6F01FFD04460028ABD110A916A89F
:106C200098F0D6FD12A918A898F0D2FD14A91AA8B8
:106C300098F0CEFD36AB079330AB05930DF1B80A53
:106C400034ABCDE903A30DF1700B0EAB8DED008BD2
:106C5000CDF818B002931AAA18A916A84CF0BEF8DD
:106C60000446002886D10BA893F025FD0AA893F0CE
:106C700022FD09A893F01FFDB9F1000F13D1D6F83A
:106C8000640300285ED003689B6898470346D6F8E3
:106C90006403002B4ED003685A4641465B6998470F
:106CA000044688B141E7D9F8003048465B69984707
:106CB0005946A6F0E0FF08B9C52436E79DF85831DB
:106CC000CDF8CC908DF822319DF860315146B3FA61
:106CD00083F328465B098DF82331A6F050FF044664
:106CE00000287FF422AF28460CA9A6F046FC06F542
:106CF0005D7495F881303FB302211120234AADF035
:106D000059F8D5E900122B69CDE9012100936B698F
:106D1000022111201E4AADF04DF820460F994EF089
:106D200017F8034630BB96F88233013386F8823376
:106D30000024FAE603684146DB6898470028C3D17F
:106D40001024F2E60324F0E6D5E900121120CDE983
:106D5000002102210F4AADF02DF820460F994DF089
:106D6000F7FF03460028E3D0012111200A4AADF0C5
:106D700021F8DDE701211120074AADF01BF8D2E729
:106D80000000000000000000687C0D08937B0D08E7
:106D9000B37B0D08F67B0D082B7C0D0890AA0D081F
:106DA0002DE9F0478AB00DF10D0301931523064636
:106DB00000934FF48072002308460C46ACF0E9F8CB
:106DC000E8B996F892300122009320460023ACF0F7
:106DD00067F8A0B996F8933002220093204600236A
:106DE000ACF05EF858B90DF10E030193162303229F
:106DF000009320460023ACF0CCF8054610B10AB051
:106E0000BDE8F0874FF0100906F1C8070DF118082A
:106E1000102200214046B4F065F90DF10F030193F3
:106E200015234FF48072009320460023ACF0B1F894
:106E30000028E4D196F89320EBB29A4251D917ED8D
:106E40000C7BC44637F828ACA7F12603A7F1160E31
:106E5000624618685968083303C273459446F7D1EF
:106E60008DED007B042200232046ABF0F4FF0028C8
:106E7000C5D1052200232046CDF800A0ACF010F8C3
:106E80000028BCD14046494606228DE80300002375
:106E90002046CDE90489ACF04FF90028AFD1204657
:106EA0009DF90F10ACF0AAF8013530370028A6D1B3
:106EB000032DADD120469DF90E10ACF09FF80028AF
:106EC0009DD1B6F88A300722009320460023ABF00C
:106ED000E7FF002893D120469DF90D10ACF08EF805
:106EE0008DE782469FED027BBAE700BFAFF30080DB
:106EF0000000000000000000054B18680368D96915
:106F000001A3D3E90023084700E0373B015D0300FC
:106F10006C1E0220000000002DE9F04FC76997B0F9
:106F20008346209E08910C92129355EC104B8DEDE8
:106F3000000B7FB9102061F0A9F90246CBF81C00C4
:106F400020B9A74BEF21A74862F0B2F8C0E901775A
:106F50000760C760DBF81C30196859B15A68012313
:106F6000584693404A608B6062F0FCF9DBF81C30B5
:106F700000221A602B1EB7BF23F00043002301221A
:106F80000193A8BF3360019F974BB8BF3260BB43EA
:106F900019D142F20F73129A1360C7F313032343FC
:106FA00000F0DB85219B53B9904B21E0904B03937C
:106FB0000833219A1360039817B0BDE8F08F8B4B0C
:106FC00003930333F5E79DED007B0022002351EC92
:106FD000170B8DED0A7B60F089FB804650B10123D1
:106FE000129A1360219B13B1824B219A1360824B3A
:106FF0000393E0E7C7F30A5614AA15A958469DED76
:107000000A0B62F037FC0290002E76D00B9BA6F2A2
:10701000FF36CDF84C80C3F3130343F07F53DDE913
:107020000A0143F4401319460022744B5FF03EFFFF
:1070300065A3D3E9002360F0F1F865A3D3E9002349
:107040005FF036FF04460D46304660F07DF862A3DF
:10705000D3E9002360F0E2F802460B4620462946B9
:107060005FF026FF04460D4673F05EFA00220746E5
:1070700000232046294660F043FB40B1384660F0CB
:1070800063F822462B4660F031FB00B9013F162F12
:1070900052D85B4B03EBC703DDE90A01D3E90023B8
:1070A00060F02EFB002849D0013F00231193149B70
:1070B0009B1B5A1E4CBFC3F101030023079245BF1F
:1070C0000693002306930793002F39DB079B109745
:1070D0003B44079300230993089B092B66D8052B93
:1070E000C5BF043B002401240893089B023B032BEB
:1070F00067D8DFE803F02D3A3859DDE914631E4400
:1071000006F23243202BC9BFC3F14003C3F1200371
:107110009F4006F21243D8BF04FA03F006F1FF368F
:10712000C4BF24FA03F347EA03005FF0FDFF012226
:10713000A1F1F873139276E70123B7E71190B6E750
:10714000069BDB1B06937B42099300231093C3E746
:1071500000230D930C9B002B56DC012399461A4605
:1071600004930C920CE00123F3E700230D930C9B96
:10717000FB1803F1010904934B46012BB8BF01230F
:10718000DBF81C000021042202F114059D423FD9C6
:107190004160584662F0A6F8039000283BD1194B95
:1071A000024640F2AF11CEE60123DFE701240023BF
:1071B0000D9408934FF0FF33002299460493122355
:1071C000CFE701230D93F5E761436F63A787D23FB4
:1071D000B3C8608B288AC63FFB799F501344D33FC6
:1071E00075E60D08CBEE0D080000F07FC7EE0D0828
:1071F000BEEE0D08ECDE0C08EBDE0C080000F83FDC
:10720000D8EF0D082CEF0D080C9B99460493B7E7B7
:1072100001315200B8E7DBF81C30B9F10E0F039AC8
:107220001A606FD8002C6DD0002F36DD07F00F02EA
:10723000A04BF8054FEA271403EBC20393ED007B44
:107240008DED0E7B17D59C4B04F00F044FF0030817
:10725000D3E90823DDE90A0160F00AF9CDE900016C
:10726000954D5CB9DDE90E23DDE9000160F000F920
:10727000CDE900012BE04FF00208F1E7E10709D565
:1072800008F10108DDE90E01D5E900235FF0C6FF32
:10729000CDE90E0164100835E3E700F007817C4278
:1072A000844B854D4FF0020804F00F02241103EBCC
:1072B000C203DDE90A01D3E900235FF0AFFF002339
:1072C000CDE90001002C40F0E580002BD0D1119BCE
:1072D000DDE90045002B00F04C810022774B204671
:1072E000294660F00DFA002800F04381B9F1000F43
:1072F00000F03F81049B002B00F3E480DDE90A34B9
:10730000CDE90034159B002B02DB0E2F40F34282A7
:107310000D9A002A40F06782099C0025DDF818804C
:10732000B8F1000F0DD0079B002B0ADD4345069AEC
:10733000A8BF4346D21AA8EB03080692079AD31AAD
:107340000793099B0BB30D9B002B00F0A682002C2A
:1073500000F0A18229462246584662F02DF9029A91
:1073600001460546584662F07DF8029906465846A1
:1073700061F0F8FF099B1B1B099300F09182099AA9
:107380003146584662F018F902900121584662F0E1
:1073900053F8109B0446002B00F084821A460146E5
:1073A000584662F009F9089B0446012B03DC009B58
:1073B000002B00F07C820026236904EB830318690C
:1073C000B3F0F4FFC0F120001096079B184410F0B2
:1073D0001F0000F09182C0F12003042B40F3818252
:1073E000C0F11C00069B034480440693079B0344A2
:1073F0000793069B002B05DD1A460299584662F05A
:1074000035F90290079B002B05DD21461A465846A8
:1074100062F02CF90446119B002B00F07682214685
:107420000298B4F012F8002880F26F8200230A223A
:107430000299584661F0B8FF0D9B7E1E0290002B0A
:1074400000F05C82002329460A22584661F0ACFF16
:10745000049B0546002B03DC089B022B00F35E8295
:10746000B8F1000F05DD29464246584662F0FEF8A5
:107470000546109B002B00F0D0826968584661F0E9
:1074800031FF0746002840F07F820D4B024640F254
:10749000EF2158E5E20706D508F10108D5E90023F8
:1074A0005FF0BCFE0123641008350BE74FF00208C3
:1074B0000DE700BFD8EF0D08B0EF0D080000F03F5A
:1074C0002CEF0D0820460022AC4B29465FF0A6FEAB
:1074D0007E1E08F10108049CCDE9000140465FF0E2
:1074E00033FEDDE900235FF099FEA54B00225FF03B
:1074F000DFFCA1F15073CDE90E010F93002C3BD1BD
:107500000022A04BDDE900015FF0D0FC02460B46F3
:10751000CDE90023DDE90E2360F010F9002840F0EA
:107520005781DDE90E2101F10043DDE9000160F042
:10753000E7F800283FF4E2AE002425460C9BDDF876
:107540000CA0DE434FF000082146584661F00AFFC8
:10755000002D00F0A980B8F1000F05D0A84503D098
:107560004146584661F0FEFE2946584661F0FAFE53
:107570009AE03E464C46B1E7834B03EBC40353E924
:107580000201039B1C440D9B002B4AD002460B4674
:1075900000207E495FF06CFFDDE90E235FF086FC82
:1075A000DDF80CA0CDE90E01DDE9000172F0BCFFB1
:1075B00005465FF0C9FD024630350B46DDE90001A6
:1075C0005FF074FC0AF8015B02460B46CDE900014E
:1075D000DDE90E0160F0B2F8002865D100206C49A9
:1075E000DDE900235FF062FC02460B46DDE90E0197
:1075F00060F0A4F8002840F00D81A24500F0EA8078
:1076000000225E4BDDE90E015FF008FE00225B4BBD
:10761000CDE90E01DDE900015FF000FECDE90001DA
:10762000C2E7DDE90E235FF0F9FDA046DDF80CA00E
:10763000CDE90E01DDE9000172F076FF05465FF04D
:1076400083FD024630350B46DDE900015FF02EFC7C
:107650000AF8015B02460B46A245CDE900234FF034
:10766000000223D1494BDDE90E015FF021FC024607
:107670000B46DDE9000160F061F8002840F0CA80A7
:1076800000204249DDE90E235FF010FC02460B4664
:10769000DDE9000160F034F870B1C24608F1FF384E
:1076A0001AF8013C302BF8D0374655E0334B5FF0E9
:1076B000B5FDCDE90001BDE7DDE90A34CDE90034CF
:1076C000159B002BFFF628AE0E2F3FF725AE2E4B55
:1076D00003EBC70393ED007B0C9B002B8DED047B2C
:1076E00002DAB9F1000F64D0DDF80CA0DDE9004545
:1076F000DDE90423204629465FF0BAFE72F014FF4C
:1077000006465FF021FDDDE904235FF087FD0246B8
:10771000204606F130040B4629465FF0C7FB0AF805
:10772000014B039C02460B46AAEB0404A14540F022
:1077300082805FF0BDFB04460D46DDE904235FF067
:10774000FDFF002865D120462946DDE904235FF0CE
:10775000CDFF08B1F3075CD40299584661F002FEF0
:10776000002301378AF80030129B1F60219B002BF9
:107770003FF421ACC3F800A01DE400BF000024408A
:1077800000001C4000001440D8EF0D080000E03F4E
:107790000000F03FA24B03EBC70393ED007B0C9B73
:1077A000002B8DED047B9FDAB9F1000F9CDC7FF498
:1077B000C3AE00229B4BDDE904015FF02FFDDDE944
:1077C00000235FF0B1FF044600287FF4B5AE3E46CB
:1077D0002546B4E0DDE90A34CDE90034159B002BE1
:1077E00001DB0E2FD6DD089A012A36DC139A82B30C
:1077F00003F23343099CDDF81880069A01215846AC
:107800001A440692079A1A44079261F015FE05463B
:1078100086E53E4653469A4613F8012D392A06D18D
:10782000039A9A42F7D13022039901360A701A78E6
:1078300001321A7038E700227B4B5FF0EFFC002228
:10784000002304460D465FF051FF00283FF450AF7F
:1078500082E7149BC3F13603CCE709F1FF34099B9F
:10786000A34208DBB9F1000FA3EB04040EDBDDF843
:1078700018804B46C1E7099B109AE31A0994DDF87A
:10788000188000241A444B461092B6E7069BA3EBDF
:1078900009080023B1E7029E71E5099A029970E593
:1078A000029672E5089B012B17DC009BABB9019B8C
:1078B000C3F313039BB9019B23F00046360D360535
:1078C00036B1069B012601330693079B01330793CC
:1078D000109B002B7FF470AD1096012075E50026FB
:1078E000F6E73FF486AD1C33069A1A449844069294
:1078F000079A1A4407927CE50346F4E7049B002BA1
:107900002BDC089B022B09DC27E0B9F1000F1DDC02
:10791000089B022B1ADD3E46CDF81090049B002BED
:107920007FF40CAE21460522584661F03DFD01462C
:1079300004460298B3F089FD00287FF7FFADDDF81B
:107940000CA0312301360AF8013BFBE50D9B3E46B6
:10795000CDF81090002B7FF483AD039F2146029851
:10796000B3F02AFC039B00F13009049A07F8019B4D
:10797000FB1A9A4240F3CB8000230A220299584610
:1079800061F012FD0290E9E72A6905F10C010C3063
:1079900002329200B3F0E9FB01223946584661F009
:1079A00065FE039BA846054603F1010ADDE90323B2
:1079B00013440793009B03F0010309930AF1FF337B
:1079C000214602980493B3F0F7FB4146069000F17C
:1079D00030090298B3F039FD2A4621460746584639
:1079E00061F0B0FEC268014602B3584661F0BAFCCD
:1079F000002F3ADA01220299584661F037FE2146FB
:107A00000290B3F022FD002803DC29D119F0010F08
:107A100026D0B9F1390F1DD132E02846C1E700BFA9
:107A2000D8EF0D0800001440000024400A9002988E
:107A3000B3F00BFD0A990C90584661F093FC0C9A38
:107A40005ABB089B53B9099B43B9B9F1390F17D0F9
:107A5000002F05DD069B03F1310901E0002F2ADA32
:107A6000DDF810A00AF8019B6EE5089B3B4304D1AA
:107A7000009B03F00103002BBCD0B9F1390F36D1C4
:107A8000049F392307F8013BBA46013F1AF8013C2D
:107A9000392B5AD001333B7056E5002F06DB089B8B
:107AA0003B4306D1009B03F0010313B9002AA1DC7C
:107AB000D6E7002AE1DC079B57460AF8019C5345AC
:107AC0002ED000230A220299584661F06DFCA84589
:107AD00002904FF000034FF00A02414658460BD186
:107AE00061F062FC804605460AF1010A66E7DDF8AE
:107AF00010A009F10109B5E761F056FC294680465E
:107B000000230A22584661F04FFC0546ECE7049B2F
:107B10004FF00008002BCCBF1F460127039B1F44DA
:107B200001220299584661F0A1FD21460290B3F06E
:107B30008CFC0028A8DC02D119F0010FA4D1BA46B0
:107B400017F8013D302BFAD0FEE4039BBB429BD1DA
:107B50003123039A01361370F6E4219B002B7FF446
:107B600025AA014BFFF744BABEEE0D080000000045
:107B7000002370B5424C05468AB0E36318B1008813
:107B8000236067F027FC67F095FD3E48B7F08EFB59
:107B90003D4E3E4B304633603D4B736062F084FF98
:107BA0000021304668F0ECFC33A3D3E90023A06247
:107BB000C4E90623B6F093FED4E906231943104323
:107BC000C4E90601CDE900014FF0FF334FF0FF3269
:107BD000A06AB7F06FFC02224FF0FF31A06AB7F045
:107BE00083FC012067F07AF94FF4007300222949E1
:107BF000A06AB7F034FEB0F5007F39D1002394229B
:107C0000079309933C23CDE903320593962306930A
:107C10005023A06A03A9089369F03CF935B3287C86
:107C200067F05AFD0546F0B9A06AB8F009F867F0A8
:107C3000E1FD67F035F920B14FF48070002165F067
:107C400079F967F03DF920B14FF40060002165F04B
:107C500071F9B6F00CFF0120B7F09FF90E4A0F49F9
:107C6000A06AB6F030FE28460AB070BDFF20D7E704
:107C70000725F8E7AFF300800DD50155200000007F
:107C8000183E0120690345EC20F4012015ED06089B
:107C900030F4012020F201206FE80B08AFE80B0858
:107CA0000348044B834202D0034B03B1184770478B
:107CB000182702201827022000000000064B074961
:107CC000C91A891048BF0131491003D0044B0BB1C8
:107CD00001481847704700BF1827022018270220C4
:107CE0000000000010B5064C237843B9FFF7D8FF19
:107CF000044B13B10448AFF300800123237010BD7F
:107D00003CFC01200000000080360E0808B5054B41
:107D10001BB105490548AFF30080BDE80840FFF7F7
:107D2000CDBF00BF00000000D043012080360E0808
:107D3000A3F5803A704700BF174B002B08BF134BC9
:107D40009D46FFF7F5FF00218B460F461348144A66
:107D5000121AB3F0C7F90E4B002B00D098470D4B09
:107D6000002B00D098470020002104000D000D4892
:107D7000002802D00C48AFF3008061F067F92000C2
:107D8000290005F081FF5FF023FF00BF000008001D
:107D9000000000000000000008120020081200206F
:107DA00060160220000000000000000000230246D0
:107DB000194601480AF0B4BC00C0055010B50024B3
:107DC0000E4B186873F019F90D4B2046C3F8204785
:107DD0000122C3F838470821C3F83047C3F82847C1
:107DE000C3F82C4723460AF0D3FA23462046BDE8C1
:107DF0001040012209210AF0CBBA00BFF043012054
:107E000000C003500246002101480AF059B800BFE3
:107E100000000A5010B500240E4B186873F0EDF8FE
:107E20000D4B0122C3F8B4440621C3F8CC44022010
:107E3000C3F8C444C3F8BC44C3F8C04423460AF0A2
:107E4000A7FA2346BDE810400122072102200AF0CC
:107E50009FBA00BFE843012000C00350084B1A68D6
:107E6000084B1A60084B1A68084B1A60084B1A68CE
:107E7000084B1A60084B1A68084B1A60704700BF1D
:107E8000001A0220F4430120101A0220F0430120BE
:107E9000EC190220EC430120FC190220E8430120E8
:107EA0000348044B044A05490360B2F01BBB00BF02
:107EB000F8430120F0630C083C18022019B00708B1
:107EC0004B88042B07D1836C08885B8998428CBF50
:107ED0000020012070470020704720B9064B1B6826
:107EE00033B9184607E00368002BF7D05B68F7E763
:107EF000986C0028FAD070470812002068B13F291A
:107F00000AD800EBA10090F8310001F0030149000C
:107F1000084100F00300704700207047037A23B146
:107F2000013B012B06D900207047C3681888023036
:107F300080B27047C36858880630F9E70E4B10B519
:107F40005968CC0714D4DA8A9C8A944210D949071C
:107F50001C6948BF996A24F81200DA8A4ABFC889A6
:107F60001046801802F1010248BF80B2DA8210BDCB
:107F70004FF6FF70FBE700BF0812002070B5124CEF
:107F80000146636813F0040305D00022A56AEB895B
:107F900090B2834208D80022E46AE58990B2854213
:107FA00009D84FF6FF7005E0AE6836F8126001326E
:107FB0008E42EDD170BDA66836F8126001328E4255
:107FC000ECD1034498B2F5E708120020084B5A6838
:107FD000520709D5996ACA89824203D98B6833F856
:107FE00010007047801A80B2DB6A9B68F7E700BF19
:107FF0000812002010B50446FFF7C0FF4FF6FF73CC
:10800000984203D12046BDE8104097E710BD0D4AC5
:10801000F0B50146D4899068002300EB04100646B1
:108020000B27158E05EB030C01339BB28B42A6F890
:1080300000C0777206F11006F4D30D440C44158687
:10804000D481F0BD08120020437ADA0702D5C3F3C9
:1080500080007047034BC2885B8E1A4214BF012018
:108060000020704708120020094B5A68D20707D534
:1080700060B1DB6ADB88834234BF00200120704797
:1080800020B11B8E834294BF00200120704700BFA7
:108090000812002070B50146FFF7E6FFE8B10F4B6C
:1080A000DA6AD5888D4209D301F18050136801380E
:1080B000040103EB00101B5B8B420ED0002398B22F
:1080C000854201D8002008E016681C01345B06EBED
:1080D00003108C4203F10103F1D170BD081200209E
:1080E00008B5FFF7D7FF08B1FFF7AEFFC0B208BD74
:1080F00008B5FFF7CFFF18B1007AC31F58425841A7
:1081000008BD884270B504460D46164611D80128B0
:1081100038BF01242046FFF7BDFF10B14388B342AA
:1081200008D00134A4B22046FFF79EFF20B1A5423B
:10813000F0D20024204670BD0446FBE74B88052B97
:1081400005D108880E288CBF002001207047002030
:10815000704700207047002070477047054A03466B
:10816000106800B97047B0F86E209A42FAD04068A3
:10817000F7E700BF08120020054A0346106800B95F
:10818000704790F870209A42FAD04068F7E700BF35
:1081900008120020034B93F83420034B53F822308D
:1081A000184700BF0812002008640C0810B50446E8
:1081B00050B90120FFF7EEFF0122044B204683F85F
:1081C0003420BDE81040E5E710BD00BF08120020D4
:1081D00010B5411D441E002014F8013F5A0802F05A
:1081E00055029B1A03F03302C3F3850303F03303F4
:1081F000134403EB131303F00F03A1421844EBD114
:1082000010BD7047704770477047704770477047A0
:108210007047704770477047084A034692F88210CB
:10822000814209D9906D40B103EBC30300EBC30059
:10823000406A00F0010070470020704708120020DB
:1082400038B504460D46FFF7E7FF034640B100206E
:10825000044B04EBC4049B6D03EBC4032B6038BDDB
:108260002120FBE70812002037B5044648B1047806
:108270002046FFF7D1FF10B9002003B030BD013414
:10828000E4B2074D95F88230A342F5D9204601A902
:10829000FFF7D6FF08B90198EFE70134E4B2F1E740
:1082A0000812002000207047030400D48EE600204E
:1082B000704701302DE9F04185B228460E46FFF7A0
:1082C000E9FE42F60217044642F603081CB12046B6
:1082D000FFF7BAFE10B94FF0FF3008E06088FFF7F3
:1082E000E3FFB84205D10EB123883380607BBDE83F
:1082F000F0814045EFD00135ADB22846FFF7CAFE08
:108300000446E3E72DE9F04707460E4690460D4642
:1083100042F6021942F6030A0135ADB22846FFF7CC
:10832000B9FE044678B1FFF78FFE60B16088FFF7B1
:10833000BBFF484505D1237A072B04D10320BDE8B4
:10834000F0875045E8D141463046FFF7B2FF431C65
:10835000014603D03846BDE8F047CFE50020EEE700
:108360002DE9F0410E46154642F603080130A2F50C
:10837000205784B2BFB22046FFF78CFE18B9013CEB
:10838000A0B2BDE8F0814088FFF78EFF45450CD1D3
:10839000A842F4D00134A4B22046FFF765FE08B12C
:1083A000B442E8D94FF6FF70EBE7012FF2D8A0F501
:1083B000205080B20128EDD8E1E708B5FFF774FF3F
:1083C000A0F5205080B201288CBF0020012008BDFC
:1083D00090F87430DB0706D490F97530013314BF80
:1083E0000F20052070470020704770B505460846ED
:1083F0001446FFF74FFE0146002859D0FFF724FE30
:10840000002855D0E60710D58A88D00752D512F03B
:10841000700F02F020062DD1002E30D1560604D563
:108420002B6893F97530013348D0A00702D58B88AB
:108430009A0741D5630702D58B885E073CD514F0B7
:10844000060F0DD08A8812F4E06F02F4007620D176
:108450002EBB530504D52B6893F9753001332DD00D
:1084600014F4006014D08B8813F4006F14BF002044
:1084700006200DE02868FFF7ABFF3EB140B92B683E
:1084800093F874309B07C9D4052001E00028C5D0BB
:1084900070BD2868FFF79CFF3EB10028F8D12B681B
:1084A00093F874309807D4D4EEE70028F0D1D0E7E1
:1084B0000120EDE70220EBE70320E9E70820E7E7EA
:1084C0002DE9F341D0F80160D0F80550B0F80970FB
:1084D00090F80B8001A90078FFF7B2FE0446E8B9D6
:1084E000019B5A6A91050BD44FF6DF71A6F120006B
:1084F00088421AD8A5F12000884216D8AE4214D876
:10850000D9698E4202D1196A8D4204D0C3E9076548
:1085100042F002025A6283F830809F85044867F077
:10852000C9FD848002B0BDE8F0812124F6E700BFD8
:108530002002040313B5007801A9FFF781FE044669
:10854000B8B9019A536A13F0100418D1590410D520
:108550000C4923F48043D1F8670043F00803C2F8C4
:108560000100B1F86B0091F86D10A2F80500D1710F
:108570005362054867F09EFD848002B010BD02245E
:10858000F7E700BF081200202002041110B50C46C6
:1085900001041BD5114BC0F30E005A68520712D5C7
:1085A000996ACA8A90420CD20B6903EB001000F161
:1085B000100350F8042B984244F8042BF9D11020F2
:1085C00010BD801A80B2DB6A1B69EEE7FFF7FEFC84
:1085D0002070000A60700220F2E700BF081200203D
:1085E00070B5164600221A7032800A7A0D46072AA4
:1085F00056D8DFE802F0040A0E121A1E3353EC6854
:1086000034F8022B3280204670BDEA68941D5288EF
:10861000F8E7EA68941D9288F4E7697BFFF76EFC3F
:10862000204C022224F8A80FECE702231E4C3380D2
:10863000E9E71C4C2B7B04F1AD0184F8AA302B88B0
:10864000E889013384F8AB302B88AA3401331B123C
:10865000A370FFF79BFF03303080D4E7114CA8894B
:10866000EB89020A84F8BF301B0A84F8BD0084F845
:10867000BE2084F8C030FFF70DFD68B1C3681A88CA
:10868000022A09D19A7884F8C120DB7884F8C230B4
:108690000623064C3380B6E70423FAE780221A70DB
:1086A0000024B0E70812002010640C08C512002056
:1086B0000B68FF2A03608B88838002D107238371B4
:1086C0007047032A0AD8064B1A44D27A072A8271C5
:1086D000F6D1427903EB9213DB7BF0E70023EEE760
:1086E00008640C0837B5044668464A790D460631D9
:1086F000FFF7DEFF03C8A4F85010090C11F0800F3B
:10870000E06484F8521004F1530312D00122184699
:1087100005F11201FFF7CCFF0C352846FFF758FD95
:1087200080B10122294604F15A0003B0BDE830406F
:10873000BEE7B4F8501094F85220C4F85300998062
:108740009A71E9E703B030BD8378132B02D1084654
:10875000B8F00FB8704770B506460D4614467AB9A2
:108760000A4620460821B8F0AEF9044690B92A46D8
:1087700008212920B8F0A7F9044658B9204670BD51
:108780001046B7F0F6FF2046B8F023F908231D4441
:10879000A371E571A3790C331C442670EEE72DE933
:1087A000F0411646069A074688461D46FFF7D3FF56
:1087B0000446F0B114382A4631460690B8F0C0F9A4
:1087C000854217D9069B06A81C7904F02004B7F04F
:1087D000D0FF74B9424608212920B8F074F92A461E
:1087E00031460690B8F0ACF9854206D906A8B7F034
:1087F000C0FF00242046BDE8F081069A93790C332F
:10880000D418D754F6E71FB550F80C4BADF80A3022
:1088100094F87040069BADF806108DF8082040F2E1
:10882000035101AA8DF804400393B7F0D7FE10B9A5
:1088300006A8B7F09EFF04B010BD1FB550F80C4B52
:10884000ADF80A3094F87040BDF81830ADF8061055
:108850008DF8082040F2045101AA8DF80440ADF8CB
:108860000C30B7F0BBFE04B010BD1FB590F87030EF
:1088700040F203118DF8043090F8743003F00B03CC
:10888000013BDBB20A2B8FBF00230C4A9B18DB7C19
:1088900001AA8DF80C30B0F86230ADF80630B0F8AF
:1088A0006430ADF80A30B0F866300548ADF80830ED
:1088B000B7F094FE05B05DF804FB00BF08640C0837
:1088C000CC12002007B5837801916A46082104483C
:1088D0008DF80030B7F082FE03B05DF804FB00BFF6
:1088E000CC1200201FB590F87420044602F001035A
:1088F00001908DF808300BB102F002038DF80930B9
:1089000094F87530039101AA4FF4017120468DF857
:108910000A30B7F063FE2046FFF7A7FF04B010BD92
:10892000F8B5214C0746B4F8CC60B4F8CE30F31A51
:10893000834221DAB0F5FA7F2CBF361806F5FA76B5
:10894000B6B2304672F0E2FA0546E8B1D4F8C81083
:10895000B4F8CE20B2F009FCD4F8C800A368E189CD
:10896000A5EB000C03EB01118B420FD1B8F071F9AC
:10897000C4F8C850A4F8CC60B4F8CE30D4F8C850CD
:108980001D443B44A4F8CE302846F8BD5A7A9207DD
:1089900004D51A7A22B1013A012A01D91033E3E74A
:1089A000DA686244DA60F9E7081200202DE9F04144
:1089B000254C8846A58AE38A1646EB1A834213DAC9
:1089C0000A35ADB2680072F0A1FA074610B900206E
:1089D000BDE8F081E28A21695200B2F0C6FB20694D
:1089E000B8F037F92761A582A58BE38BEB1A4345D5
:1089F00011DA0A35ADB2280172F088FA074600286C
:108A0000E5D0E28BA1691201B2F0AFFBA069B8F02A
:108A100020F9A761A583A589E389EB1AB34211DA8E
:108A20001435ADB2280172F071FA06460028CED096
:108A3000E289A1681201B2F098FBA068B8F009F9C8
:108A4000A660A5810120C3E70812002010B50F4CD5
:108A5000D4F8C80030B1B8F0FCF80023C4F8C8302E
:108A6000A4F8CC30A06818B1B8F0F3F80023A360E4
:108A7000206918B1B8F0EDF800232361A06918B19E
:108A8000B8F0E7F80023A36110BD00BF0812002072
:108A900038B5046805460C2220460849B2F0F8FAB9
:108AA00050B90222064904F10E00B2F0F1FA18B9E9
:108AB00002200C342C6038BD1020FCE726640C0822
:108AC00034640C082DE9F743102801910BD00228DB
:108AD00004D04FF6FF7003B0BDE8F083019B188807
:108AE000FFF74CFAF7E701A8FFF7D2FF0228F5D00D
:108AF0001028EED1DFF86C80019FD8F8046016F0E2
:108B0000040607D00024D8F82890B9F81660A5B25A
:108B1000AE4219D80025D8F82C80B8F81690ACB21F
:108B20004C45D6D2D8F81000102200EB051039467B
:108B3000B2F0AEFA01350028F1D1A0196FEA404039
:108B40006FEA504080B2C6E7D9F81000102200EB5F
:108B500004103946B2F09CFA01340028D7D145F40C
:108B60000040B8E70812002007B5ADF8040001A9DD
:108B70000220FFF7A7FF4FF6FF718842024605D09B
:108B8000012003B05DF804EBFFF7BBBA002003B08F
:108B90005DF804FB2DE9F0474FF00009044683F827
:108BA00000900846A2F80090884616461D46FFF73A
:108BB00071FA074618B1A4B1FFF746FA20B90123AC
:108BC00000202B70BDE8F08742F62930FFF7CCFF7C
:108BD000804506D1012385F8009004F12000338000
:108BE000F0E72B46324639462046BDE8F047F7E429
:108BF00010B50D49837991F86D400C4A04F00704D3
:108C000003F007031344224493F82E4092F82E30C9
:108C10009C4207D106226731B2F03AFAB0FA80F0EE
:108C2000400910BD0020FCE70812002008640C0871
:108C3000F8B51C4E044632460D4652F8D03F63B399
:108C400093F87D10586811F0040128D110608C222F
:108C5000184693F87070B2F045FA034680F87070C9
:108C60002268C0F85A20A288A0F85E20A27980F875
:108C700060202868D864AA79A98883F85220FF2246
:108C800083F8752083F8762040F6FF72A3F86E20F3
:108C90003268A3F850105A6033601846F8BD1A1DA8
:108CA0000346CCE70812002038B505464FF4FA70A9
:108CB00072F02CF9144CC4F8C800E0B14FF4FA7308
:108CC0002022002104F10800C4F8CC30B2F00AFAE6
:108CD000280172F01BF9A060142072F017F92061CE
:108CE000A02072F013F9A368A06113B1236903B146
:108CF00018B9FFF7ABFE002038BD0A23A581A38277
:108D0000A38304F10800F7E7081200202DE9FF41D2
:108D100045780446FE2D6DD10025D0F80200E38889
:108D20000290ADF80C30464B1D4495F83620D10624
:108D30008DF80E2009D59DF80D1003EB9113DB7B08
:108D400093421CBF00238DF80E304FF0FF339DF887
:108D50000E100093ADF80430CB0609D53F235329FC
:108D60008DF8053002BF0023ADF800308DF80230D9
:108D7000002302AFEE4618461E463D461EF8012B64
:108D800017F801CB013602EA0C08062E22EA0C0283
:108D900040EA080043EA0203F0D1002845D0002B46
:108DA00043D011F0180F40D020786946FFF748FAF9
:108DB000044698B9009A536A13F0100437D1029808
:108DC00023F40043A979C2F8010043F48043A88842
:108DD00043F00803A2F80500D1715362194867F007
:108DE00069F903468480BDF80C2002985A81C3F8C3
:108DF00006000CE075B9134867F05CF92123457152
:108E00000371D4F80230C0F80630E388438104B01F
:108E1000BDE8F081022D0CD0D0F80200E388052DCA
:108E20000290ADF80C307FF67EAF212402E00224E0
:108E3000D4E70F2400230293CDF80B30CEE700BF18
:108E400008640C082008041070B50446084BDB6A5F
:108E5000DA881D6805EB021526461034AC4204D0B2
:108E60006088FFF7AAFA0028F6D0304670BD00BF30
:108E70000812002008B563F08FFD83790C33184485
:108E800008BD08B5FFF7F6FF407940F4805008BDF3
:108E900038B50C46054663F079FD4379C47523F077
:108EA000030343F00303437109230C348371C4713A
:108EB000A0F81550153038BDF8B507460E4642F2F9
:108EC00013000E2115461C46FFF7E2FFB7F86E307F
:108ED000A0F80560A0F80330BDF81830A0F80750DE
:108EE000A0F80B30BDF81C30A0F80940A0F80D30F8
:108EF000BDF82030A0F80F30064863F06FFDFFF793
:108F0000B9FF807820B1FFF7B5FF807840F480503A
:108F1000F8BD00BF31D60B0838B590F87230044662
:108F2000032B0D460CD1002142F20E00FFF7B0FFDB
:108F3000114863F053FD0123002084F8723018E0DB
:108F4000012B17D9032140F20640FFF7A1FFB4F827
:108F50006E304571A0F80330084863F03FFDFFF71D
:108F600089FF8378002BE6D0FFF784FF807840F4F8
:108F7000805038BD0220FCE7A5D60B08B9D50B08F8
:108F800010B50078FFF7F8F840B11321FFF7C4FFE0
:108F90000446034867F08EF8848010BD2524F8E766
:108FA00020020605F8B5002305460127204E346847
:108FB00086F8D830002C38D094F872305DB3012593
:108FC0001C4E1D4F032B0AD1002142F20E00FFF769
:108FD0005FFF384663F002FD84F8725000E023B969
:108FE000646814B394F87230ECE702214FF6044041
:108FF000FFF74EFFB4F86E30A0F80330304663F050
:10900000EDFCFFF737FF4379002BE5D0FFF732FF88
:10901000E6E794F872304BB12046132186F8D870F9
:10902000FFF77AFF6468002CF3D1F8BD6468C1E7EC
:1090300008120020EFD50B08A5D60B082DE9F04F3C
:109040000446504A8BB0D06B116C07AB03C3506C15
:109050000AAA1860E37B94F82E7002EB430333F8FE
:109060000C5C636A94F82F60DA047AD401263746E0
:1090700045F01005C3F3404B5B0394F8313048BF13
:109080004BF0020B0193A37B012F83F00803C3F382
:10909000C003029304F10803039394F9323094F867
:1090A00000A0ADB20493D4E9079805D0022F03D0F5
:1090B000042F14BF00270327012E05D0022E03D052
:1090C000042E14BF00260326504606A9FFF7B8F861
:1090D000002854D1069B5B6AC3F3C023192142F2D6
:1090E00036000593FFF7D4FE4FEA1921C1714FEA0C
:1090F0001821817201210022019B80F806900373E0
:10910000029B80F809804FEA19494FEA1848837397
:1091100080F803A0858080F8089080F80B80417368
:10912000A168039BC0F80F109988049BA0F8131046
:109130008375059B0276C37680F815B0C7754676B1
:1091400080F81AA0104863F049FCFFF793FE4079BD
:1091500020B1FFF78FFE407940F480500BB0BDE89E
:10916000F08FA26A900648BF45F02005510648BF1F
:1091700045F04005DA0348BF45F004057AE70023CF
:10918000ACE700BF08640C08A9CA060838B500237C
:10919000154991F88240886DA34202DBFF251A240D
:1091A00019E0426AD5071CD490F839506D0718D4DD
:1091B000DDB2034603F8015BD1F867100B4CC0F831
:1091C0000110A18842F009029980A1799971426247
:1091D000FFF734FF0446064866F06CFF8480857113
:1091E00038BD01334830D7E7081200206F12002045
:1091F00020030401F8B506460F4642F23900062165
:1092000014461D46FFF744FE01238471240A0371AE
:10921000C7704671C4710572054863F0DFFBFFF744
:1092200029FE407910B1BDE8F8402AE6F8BD00BF3C
:10923000B1D40B0838B5204DEB6D5A0721D595F800
:10924000832005F1600305F16704012A08BF1C466D
:10925000A37906211B071AD54FF62840FFF718FE01
:109260002368C0F80330A388A0F80730134863F0E0
:10927000B5FBFFF7FFFD437923B9EB6D23F0040342
:10928000EB6538BDFFF7FDFD0028FAD1F5E742F2A6
:109290000500FFF7FDFD2368C0F80330A388A0F8A0
:1092A0000730074863F09AFBFFF7E4FD4379002B92
:1092B000E3D0FFF7E6FDE7E70812002045CA0608FD
:1092C00083D30B08F7B5074608460C46B7F0BDFA3E
:1092D000064663F05BFB4279234622F0030242F02C
:1092E0000302427141F20902043600F11505A0F8AB
:1092F0001570C6750190C28033B901A82146B7F038
:10930000AFFA284603B0F0BD5A7922F0030242F0CA
:1093100002025A711B68EFE710B5044642F23700AB
:10932000FFF7D0FF032303710023C47043718371DF
:10933000054863F053FBFFF79DFD407910B1BDE890
:1093400010409EE510BD00BF19D40B0810B50446AF
:1093500042F23800FFF7B6FF032303710023C47005
:1093600043718371054863F039FBFFF783FD407952
:1093700010B1BDE8104084E510BD00BF65D40B08F6
:10938000436A70B55A07044605D5002300781A468B
:109390001946FFF72FFF636A9B0706D52046FFF7A4
:1093A0004DFE636A23F002036362636A1E074ED5B3
:1093B000E679052116F0080625782FD04FF61940DA
:1093C000FFF766FD0023012243718371C3710271AF
:1093D000C570464863F002FBFFF74CFD4379C3B903
:1093E000072142F23500FFF753FDC570D4F8013074
:1093F0004360B4F8053003813D4863F0EFFAFFF7AE
:1094000039FD4379FBB1FFF735FD407940F48050D9
:1094100003E0FFF736FD0028E2D070BD4FF61A409A
:10942000FFF736FD0123C570037146718671C67161
:10943000304863F0D3FAFFF71DFD4379002BCFD0FE
:10944000FFF71FFDE7E7636A23F008036362636ABF
:10945000DD0601D40020E0E713F480551DD0616AD9
:109460004807F7D5E37BA28D012B04D1002A3BD01E
:10947000802A28BF802211F0400F94F830304FF03E
:10948000010118BF01232078FFF7B4FE0028C4D1E2
:10949000636A23F004036362DCE71906E27B13D4FA
:1094A000E37B626A023B012BD9D8D305D7D561692A
:1094B0002078FFF74BFF00236361636A23F4807316
:1094C00063620028CBD0A8E702F0FB03012BC6D0D3
:1094D00021692078FFF720FF636A256123F080036C
:1094E00063620028DCD098E74022C4E723D30B084E
:1094F00025D50B0853D30B08F7B5857804461F2DE7
:1095000047D8077801A93846FEF79AFE28B9019B8B
:109510005B6ADA0601D5DB043DD400216678009150
:1095200075B9384601A9FEF78BFE044690B168462E
:10953000B7F01FF9194866F0BDFD848003B0F0BD97
:109540002B460846E21CB7F028FB00900028E8D123
:109550001A24EFE7DDE9004596B905F11000B7F0F0
:1095600008F92C616C6A44F0800400236C6214F0EA
:1095700010040093DBD02846FFF702FF0446D6E72D
:1095800005F11400B7F0F5F86C616C6A44F480746E
:10959000EBE72124CEE70224CCE700BF20025600EF
:1095A00010B5104C94F8833033B1E06D10F0010029
:1095B00002D1FEF759FE00B910BD436ADB06F8D5AB
:1095C0004EF6602294F884304FF48271534306487B
:1095D000002271F0A7F90028EED1E36D43F00103FA
:1095E000E365E9E708120020CC1200202DE9F341E1
:1095F000D0F8016001A90078FEF722FE0546002898
:1096000031D1019C676A7A0415D4730704F101080B
:1096100030D54146062071F0A9FC002842D1A3793B
:1096200003F03F03A3711423E371636A43F400431F
:1096300043F008036362A36AF0064CBF43F400538F
:1096400023F40053A362636AB1064CBF43F40033B2
:1096500023F4003372064CBF43F4802323F48023A9
:1096600043F002036362114866F024FD858002B076
:10967000BDE8F0814046FFF7BBFA78B90C4B47F0E4
:109680000807D3F86720C4F80120B3F86B2093F8DB
:109690006D30A8F8042088F806306762636A23F406
:1096A0000043C7E740F20745DDE700BF2002041290
:1096B00008120020F8B5456A0446690419D4184F09
:1096C00005F4004397F88320012A13D1826A92049B
:1096D00010D473B1411C062071F048FC48B9A3793D
:1096E00003F03F03A3711423E371636A43F008039B
:1096F0006362F8BD002BFCD1661C3046FFF778FA98
:109700000028F6D1D7F86720064BC4F801209A88C4
:109710009B7945F00805A4F80520E3716562E8E748
:10972000081200206F12002022F00042052A38B5EE
:109730000DD0B2F5827F15D0032A06D11D4AD36D14
:1097400023F00203D365FFF775FD002038BD194AE9
:109750001B88B2F880109942F7D10023A2F880301C
:109760000120F3E7134DEB6D23F00103EB6595F852
:109770008330012BF4D10020FEF776FD044640B97A
:10978000FFF70EFFEB6D43F00403EB65FFF752FDAF
:10979000E6E7636ADA060BD55B0409D42046FFF7D7
:1097A00089FF636A204643F006036362FFF7E8FD22
:1097B0002046E1E70812002022F00042B2F1A04F5B
:1097C00008B504D10348B5F052FA012008BD0020C5
:1097D000FCE700BF50640C0822F00042B2F5887F1D
:1097E00019462DE9F04700F0ED800ED840F2031342
:1097F0009A423FD040F209139A4200F0CD800E2ADF
:1098000000F0BE800020BDE8F08740F207239A42B6
:1098100049D0B2F5037F5ED040F206239A42F1D1DF
:109820000C686D4894F8523094F8735003F00703B5
:109830000344543093F84CA094F8709094F97580D8
:1098400094F876708E88B5F012FA0028DAD0E36CBE
:109850004360B4F8503080F80AA003816B1E5D426B
:109860005D41C57280F80C9080F80D808773A0F878
:109870000F60C7E70C782046FEF77EFC0028C1D0B9
:109880005648B1F802808F88CE880D7AB5F0EFF98E
:109890000028B7D00471A0F80580A0F80770A0F8E0
:1098A0000960C572AEE70C782046FEF765FC00281B
:1098B000A8D04B784A48013BDBB20A2B97BF464AF7
:1098C00000259B1893F85C50B5F0D1F9002899D089
:1098D0000471457196E78C78012C1FD0022C2FD093
:1098E000D4B9CB780E78023BDBB2022B8CBF0124BB
:1098F000394A91F904809CBF9B1893F86C404F79CA
:1099000091F906503748B5F0B2F928B106714471A3
:1099100080F80680C7710572012074E7CB780E7855
:10992000023BDBB2022B98BF2B4A91F904809CBF0B
:109930009B1893F86C404F7991F906502A48E2E75A
:10994000CB782A48023BDBB2022B97BF224A012484
:109950009B1893F86C404E780D7891F9049091F82B
:10996000058091F90670B5F082F90028D4D0868080
:109970008571C47180F8089080F809808772CBE700
:109980000B460822002113F8014B1948B5F080F965
:109990000028C1D00471BFE7164891F800804F88B5
:1099A0008E88CD880C89B5F062F90028B4D080F893
:1099B0000480A0F80570A0F80760A0F80950A0F88E
:1099C0000B40A9E70C481C78B5F051F900283FF48A
:1099D00019AF047116E700BF08640C0860640C0836
:1099E00070640C0878640C087C640C0880640C08B3
:1099F00084640C0888640C088C640C08184640F2D7
:109A00000A4322F000429A422DE9F04110D8B2F503
:109A1000806F40F2B3806FF48063D318092B00F29B
:109A2000AD80DFE803F05716263723232323AB57F7
:109A300040F201539A423BD0A2F20253032B00F2B0
:109A40009D80A2F20352022A56D8DFE802F05D8020
:109A5000930005784468826900F1080300214848B2
:109A6000B5F016F910B10571C0F805400120BDE848
:109A7000F081067845880479826900F108030021A5
:109A80004048B5F005F90028F0D00671A0F805505F
:109A9000C471EBE7057844884269031D00213A4808
:109AA000B5F0F6F80028E1D00571A0F80540DDE733
:109AB000077846880579C48800F1080200213348F8
:109AC000B5F00BF90028D1D00771A0F80560C57179
:109AD0000481CBE740F201439A4205D105784488DE
:109AE0002B48B5F0C4F8DDE704782A48B5F0BFF894
:109AF0000028BBD00471B9E7077846880579C48887
:109B00002548B5F0B4F8DDE787680678458804791C
:109B100077B1C78800F1080200212048B5F0DDF8D0
:109B20000028A3D00671A0F80550C47107819DE7F5
:109B30003B463A4639461948B5F0AAF8002895D070
:109B40000671A0F80550C471077247728EE790F84D
:109B5000008047880679C58804891148B5F087F8E0
:109B6000002883D080F80480A0F80570C6710581B4
:109B700044817BE7057844680A48B2E7002076E72D
:109B800090640C0894640C0898640C089C640C089D
:109B9000A0640C08A4640C08A8640C08AC640C084D
:109BA000B0640C08B4640C082DE9F8430023254C7C
:109BB0008C21C4F8D430A4F8D83002680120C4F84D
:109BC000D42094F8D49023604A4670F065FF05468F
:109BD00020BBA046064648F8D00F4E4521D31A496F
:109BE0001A48B6F0BFFCB4F8D640A4F11B03E02B32
:109BF00014D8042142F22400FFF74AF96FF06F03F2
:109C000043714223A0F803408371114862F0E6FEDD
:109C1000FFF730F943790BB1FFF733F92846BDE878
:109C2000F883012070F09EFF07468C220021013648
:109C3000B1F058FA87F87060C8F8007007F10408AE
:109C4000CBE700BF08120020B0180220CC12002081
:109C5000D5D60B0810B5114BD3F8DC301C7FD4B12E
:109C6000102C28BF1024B6F0D0FC621C81B2002357
:109C70000720D2B270F010FF044650B908490948D5
:109C8000B6F070FC08480949B6F06CFC084871F061
:109C900011F9204610BD0424E5E700BF081200209A
:109CA000C0180220E8120020EC120020D018022078
:109CB000E018022030B5124B0D469942144689B087
:109CC0001BD1930011D505A906A870F0CBFE072380
:109CD00000220393059BE1B20293069B2846CDE93F
:109CE000003241F00051B6F012FC0648B4F0BFFF5C
:109CF00000B10471012009B030BD0020FBE700BFB6
:109D0000EC120020B8640C08F0B5054685B0284870
:109D1000B4F0FFFE002844D02C68002C43DB002365
:109D20006F686E7A2D7A1A46224845F00051B6F0D7
:109D3000DCFB00231F481A4645F08041B6F0D5FBF6
:109D40004CB3072070F024FF01282ED9631EB3F511
:109D5000A37F98BF4FF4A474B8F056F8A4FB000397
:109D6000C40B44EA4344B8F04FF80722A7FB003085
:109D7000DB0B43EA4043002E0CBF4FF000514FF085
:109D80008041CDE9023200220A48CDE90042294350
:109D9000B6F0BDFB0446084866F08CF9848005B037
:109DA000F0BD0224F7E72124F5E71A24F3E700BF0A
:109DB000E8180220EC1200202002011A13B50C460C
:109DC00001A9B8F027F810B9019BC4E9003002B02E
:109DD00010BDF7B5186810F0020004D01A4DD5F880
:109DE000E81011B9012003B0F0BD0024042223467D
:109DF00068460094B6F0B3FCBDF80230DB070AD425
:109E000005F1E800B6F0D3FC042101900DEB010050
:109E1000B6F03FFD019C00260C4F57F8043B23B1E0
:109E20002146BDF80000984748B1D5F8E830002B2E
:109E3000D8D0022195F9040170F0D0FBD2E70136A9
:109E4000062EEAD1F1E700BF08120020F41200202C
:109E50007FB51C4640F20A6322F000429A4206D8BF
:109E6000B2F5C06F06D8032A20D00D2A4CD00020AE
:109E700004B070BD6FF4C0631A44092AF7D801A377
:109E800053F822F0739F0008219F0008459F0008A7
:109E9000559F00086B9F00086F9E00088B9F00086D
:109EA000A19F0008C59F000815A00008002402A873
:109EB00008F09AFD01A8BDF80850019474F01DFD4A
:109EC00000B101945548019CB4F0D1FE0028CED0D9
:109ED000002343718371C37143726FF00103837276
:109EE0004FF0FF33C3723E2383746FF011030922D6
:109EF000C3746FF063030271037501224D23027274
:109F0000C46005824375B2E723460422002153F85A
:109F1000044B4348B4F0BCFE0028A8D08480A6E7D8
:109F200025782846FEF728F90028A0D03D4894F966
:109F30000160A478B4F09BFE002898D005714671AA
:109F4000847194E724783848B4F091FE00288ED0CC
:109F500004718CE7257835486468B4F088FE0028E1
:109F600085D00571C0F8054081E7257830486468E0
:109F7000F3E7304825786468B4F079FE00283FF4B0
:109F800076AF0571A0F8054071E72B482578646825
:109F9000B4F06DFE00283FF46AAF0571447166E7C6
:109FA000627826480D2A97BF254B01259B1893F808
:109FB000D4502478B4F05BFE00283FF458AF04710D
:109FC000457154E7627800210D2A98BF1C4B1D484B
:109FD0009CBF9B1893F8D450A278636888BF012572
:109FE0002678B4F055FE08B1067145716378012BEF
:109FF0003FF63DAF8DF8083001220021114802AB39
:10A000002478B4F045FE00283FF431AF01230471F9
:10A0100043712CE724780C4896E700BFBC640C0819
:10A02000C0640C08C4640C08C8640C08CC640C0838
:10A03000D0640C08D4640C08D8640C08EC640C08D8
:10A0400008640C08F0640C08F4640C08F7B51F6889
:10A05000F90726D54FF6FF730025284C284EA4F8A3
:10A060005630284B06F14C0104F1C400C4F8083105
:10A07000C4E91055C4E9125584F834502565B6F08A
:10A0800071FA2149084674F051FAF7232846A6F8D8
:10A090005C30FEF77FF806F1600104F1C400B6F011
:10A0A00061FABA0727D5154C236CF3B9A36CE3B951
:10A0B000164D0193BBF0E8FC04462846B6F077FB4A
:10A0C00001902046BBF0DBFC0199A1B14B799B07C5
:10A0D0000FD4022101A8B6F0DCFB01990C48B6F0C0
:10A0E000BFFB0220FEF756F8E4E70220FEF752F825
:10A0F000DAE70848F3E7002003B0F0BD08120020BB
:10A10000B01802203DBD0008F8640C0814130020AC
:10A1100048120020501200202DE9F04F87B005931F
:10A12000BDF8403004460393BDF844301546029113
:10A1300004932BB1129B1BB9212007B0BDE8F08F0F
:10A1400015F0300916BF4FF003084FF00208012345
:10A150005FFA88FB18BFC5F340195A464FF000015B
:10A1600058461ABF4FEA49090193CDF80490FEF70B
:10A170001DFC08B91A20E0E72046FDF78BFF0446D6
:10A180000028D9D04088FEF718F90028D4D0667A84
:10A190007307039B48BF06F0FB0603F1060080B27D
:10A1A00048BF46F02006FEF7BBFB82460028E1D000
:10A1B0002046FEF749FE414B00F11004D9899A6808
:10A1C000074602EB0112944252D15846FDF71FFF99
:10A1D000044642F60300FDF70DFF637AEDB2334308
:10A1E0006372374B608063600523022023720299FB
:10A1F0002573FEF767FC4FF6FF73984203D1029B6D
:10A200001888FDF79BFE637EE0811E43059B6082FC
:10A21000A3824FF6FF73E38201232376039B6676C6
:10A22000C4F81CA0AAF80230049B8AF8005023B19D
:10A23000129B13B11B788AF80630139B228A1A806E
:10A24000019B9BB142F60210FDF7D4FE1D4B1B4A49
:10A250006362032384F8283092F820306084591C0C
:10A2600084F82C9082F8201084F82D30002064E7C8
:10A27000121BC2F30F12214612014FEA081B04EB16
:10A280000810B0F015FF5A4600212046B0F02AFF12
:10A290000B200A4B1A8ED98908EB02039BB23A8233
:10A2A000013292B29A42787607F11007F7D1034B48
:10A2B00088441A86A3F80E808BE700BF081200209E
:10A2C0000108FFFF0308FFFFF8B5142704460E46F8
:10A2D0000B683A461D0A00210435B0F003FFEDB2C9
:10A2E000212220463946B6F092F920462946B6F09A
:10A2F00017FAA27933681444E360F8BD01232DE90D
:10A30000F0418B4090F87110044621EA030149B2F4
:10A3100080F87110002953D110211830B6F060FC7C
:10A32000334D286800284DD1324D04F13800B6F085
:10A3300020FA2B681BB19C425A684DD12A60A36851
:10A3400059051AD51A0518D443F4006304F17806A8
:10A3500030462949A36094F87080E768FFF7B4FF9E
:10A36000304694F87C10B4F024FC30B994F87E3078
:10A370008433234483F806809F8000232046636053
:10A38000B6F018F9012070F01BFC4FF48072C0B2D7
:10A39000B2FBF0F2424394F870300344B3FBF2F1A5
:10A3A00002FB1133DBB2591EC9B2FD29F5D884F87E
:10A3B00070300023114A6360D5F8D030ABB9146017
:10A3C000BDE8F08183689C4204D1066870F038FCD7
:10A3D0002E60A6E70546A4E71A465B68002BAED0C0
:10A3E0009C42F9D163685360A9E71A1D5B68E5E7F1
:10A3F0004C1200200812002008650C08D81200201A
:10A4000010B50446806920B10021FFF777FF0023D3
:10A41000A36110BD2DE9F041244E017886F8821029
:10A42000002941D001EBC101002301220420C90011
:10A4300070F032FB054658B9042070F093FB4FF0E2
:10A4400048082F46B06596F882309D4203DB002510
:10A450002846BDE8F081B46D002108FB05441422B4
:10A46000A76104F13400B0F03DFEA0224FF4A073C8
:10A47000C4E90723072304F1100084F83130E7739F
:10A48000E771B6F076F904F11400B6F072F92046DF
:10A49000FFF7B6FF40F20113E3857F23A76284F83C
:10A4A000323067620135CEE7B165D0E7081200208F
:10A4B000F7B5077801A93846FDF7C2FE0546002822
:10A4C00039D1019C636A13F0100508D023F0100302
:10A4D00043F0040320466362FEF752FF0546FF2364
:10A4E0002370636AA02223F0010363624FF4A07318
:10A4F0000026C4E90723072304F1100084F8313053
:10A50000E673E671B6F035F904F11400B6F031F9EE
:10A510002046FFF775FF40F20113E3857F233146A4
:10A520003846A66284F832306662FEF7F5FE3146A0
:10A530003846FEF70BFF034865F0BCFD858003B08D
:10A54000F0BD00BF2002040290F8393073B55B07FC
:10A5500004460D4633D4FFF7ADF86B1E042B1DD80F
:10A56000032D1BD0E379142B2BD0A369B3B9164864
:10A57000694690F8836000F167026030012E18BFD1
:10A5800010460093ADF804308DF80630FEF750FB0E
:10A5900018B91A25284602B070BDA061636AE57338
:10A5A00043F016036362FEF7FBFF2046FEF7E8FE6A
:10A5B00005460028EED02046FFF722FFEAE70225F5
:10A5C000E8E72125E6E700BF0812002037B5457807
:10A5D00001A90078FDF734FE044618B9052D019C49
:10A5E00006D921240F4865F065FD848003B030BD95
:10A5F0002069B6F02AF91F28F3D86069B6F025F96A
:10A600001F28EED8012DECD02B1F012BE9D9636A4E
:10A61000204623F4825363622946FFF795FF0446E0
:10A62000E0E700BF2002560213B501A9FDF708FEBE
:10A6300078B9019C636A204623F0500343F0040379
:10A640006362FFF7DDFE204602B0BDE81040FEF772
:10A6500097BE02B010BD002010B5FDF705FE044600
:10A6600000B910BD2078FFF7DFFF2046F5E710B5F1
:10A670000078FFF7D9FF0446024865F01BFD84808F
:10A6800010BD00BF2002040A002337B580F87230E5
:10A6900040F6FF73A0F86E3083680446DA040D4676
:10A6A000C16010D443F480636A46A36040F2032182
:10A6B0002046CDE90045B5F091FF00212046FFF787
:10A6C0001DFE03B030BD694690F87600FDF7B8FD79
:10A6D00018B90098C17BFFF737FFA36823F48053B4
:10A6E000E2E738B500230F4C2568E36765B92068B9
:10A6F00088B9C4F8D000012070F012FABDE83840E3
:10A7000009490A48B5F052BF284641F21601FFF741
:10A71000BBFF6D68EAE7436890F871102360FFF7AC
:10A72000EDFDE4E708120020B0180220CC12002052
:10A7300038B54B7905465B070C460BD420460649D5
:10A74000FFF7C2FD20462179B4F033FA10B9A3799E
:10A750001C44257438BD00BF0C650C08F8B50546CF
:10A76000BBF092F91D4F064697F8153107F588742E
:10A7700013F0040F0ED120461949FFF7A5FD20461E
:10A7800097F81411B4F015FA20B13046BDE8F8403E
:10A79000BBF075B997F816310C3323442DB91A79EB
:10A7A000FF2AF2D001321A71EFE7012D05D15A7953
:10A7B000FF2AEAD001325A71E7E7022D05D19A79D2
:10A7C000FF2AE2D001329A71DFE7032DDDD1DA7979
:10A7D000FF2A1CBF0132DA71D7E700BF0812002040
:10A7E00010650C0840F6FF732DE9F341B0F86E20B8
:10A7F00001919A4205D101A8B5F0BBFF02B0BDE8B6
:10A80000F0810B4601248BBB1D48B6F029F81C4D86
:10A810002846B5F0CCFF04460028EFD0B6F015F876
:10A820006379064603F001086FF3000363710421A6
:10A830002046A768B6F0DDF84279847968F3000213
:10A840004271D243B7F86E100C34876002F00102F7
:10A850000155C1F3032100EB040C41EA02118CF80D
:10A860000110ACF8026062F0CDF8D1E75A79986037
:10A8700022F0030222435A7100241B68C3E700BF81
:10A880004C12002073B5044610460E460192B5F0F6
:10A89000DCFF042185B20198B6F0ABF8014628B977
:10A8A00001A8B5F066FF1A2002B070BD837901904F
:10A8B0000C33C2185680C5522046FFF793FF002084
:10A8C000F2E70A4600680421DCE709B11439F8E729
:10A8D0001A207047F8B504460F4616460521012098
:10A8E000069A1D46FDF737FF014630B14770468096
:10A8F00005712046BDE8F840E7E7F8BD012110B535
:10A90000002204461920FDF726FF014618B1204613
:10A91000BDE81040D9E710BDF0B50E46044685B03D
:10A92000FDF7E0FEF278B378482043EA0223A4F86A
:10A930006E30727E337E43EA0223A4F86230727F67
:10A94000337F43EA0223A4F86430F27EB37E43EA05
:10A950000223A4F866301B23A4F86C305A4BB3F8DA
:10A960007620B3F87830A4F86820A4F86A3002237F
:10A9700084F87230A36843F40073A36094F87330D2
:10A98000022B02BF94F8713043F0010384F8713058
:10A99000B6F05DF90546014648224C4873F0CBFD00
:10A9A000E5B194F87130002743F0080384F8713062
:10A9B000A36C2A466B604FF4B813A5644449AB609E
:10A9C00020462C602F776F646FF0CEFF3A464149E6
:10A9D00005F10C006FF0C8FF02232B744FF6FF73D4
:10A9E000308C98425DD102944FF6FF7340F20621FD
:10A9F00002AA3948ADF80C30B5F0F0FD002240F263
:10AA000002212046B5F0A2FD2046FDF72EFF0221CF
:10AA100042F23000FEF73CFAB4F86E30A0F8033092
:10AA20002E4861F0DBFFFEF725FA4379ABB9FEF75C
:10AA300021FAC088FDF792FB054670B1FEF71AFABD
:10AA400095F87020037A8DF8042040F207212248FF
:10AA500001AA8DF80530B5F0C1FDFEF70BFA437978
:10AA60000BB1FEF707FAA368042123F48043A36027
:10AA700042F27A00B4F86E50FEF70AFA01234371ED
:10AA80000023A0F803508371154861F0A7FFFEF77B
:10AA9000F1F9437993B9A36843F40053A36005B077
:10AAA000F0BDFDF7FFFB029400289DD00C22B0FB07
:10AAB000F2F2837A43EA02239BB297E7FEF7E1F9C9
:10AAC0000028ECD1E7E700BF08120020F8640C086A
:10AAD00021B60008FD990008CC120020F5CC06082C
:10AAE00031DA0B08F7B504460F46164668465A7920
:10AAF000991D1D46FDF7DCFD2CB969463046FEF771
:10AB000097F80446A0B140F2032329462046A4F852
:10AB1000723084F876703368C4F85A30B388A4F879
:10AB20005E30B37984F8603003B0BDE8F040F3E6FE
:10AB3000032140F20640FEF7ABF96B88A0F8033022
:10AB40000D234371024803B0BDE8F04061F046BFF9
:10AB5000B9D50B088378F7B5122B0E4635D10B68A3
:10AB60009A790C321344DD781F790DB145F4805584
:10AB7000384601A9FDF764FB88B9019C636A23F09C
:10AB8000100363628DB93946A069621C104BFFF750
:10AB9000A9FF222229460E48A561B0F0A3FA30464B
:10ABA00003B0BDE8F040B5F0E4BD2046FFF728FC57
:10ABB000636A5A0603D523F040036362EFE7384621
:10ABC00004F13401FFF7B4FDE9E703B0F0BD00BFC5
:10ABD0008E120020F0B503780446302B0D4685B068
:10ABE00039D005D8052B25D0082B41D005B0F0BDB4
:10ABF0003E2BFBD183780C2B4CD8022BF6D9033B90
:10AC0000092BF3D801A252F823F000BFA5AC00082D
:10AC10002BAE0008EDAB0008EDAB0008B5AD0008A9
:10AC2000EDAB0008EDAB0008EDAB0008EDAB0008A4
:10AC300009AE0008B0F80300FDF790FA28B1617979
:10AC400009B141F48051FFF71FFD284605B0BDE86A
:10AC5000F040B5F08EBDB0F80300FDF77FFA002894
:10AC6000F3D0A17809B141F48051FDF73BFEECE748
:10AC7000B0F80300FDF772FA0028E6D0627990F888
:10AC8000743022B143F0010380F87430E9E703F037
:10AC9000FE03F9E7212B00F0DD80292B1FD0202BAC
:10ACA000D3D0A3E78088FDF759FA0028CDD0E27809
:10ACB000002ACAD1E179A27942EA0122A0F86220F1
:10ACC000E17AA27A42EA0122A0F86420227A617A2B
:10ACD00042EA0122A0F86620FDF7C7FDB5E7C67875
:10ACE000811C3C2E21D10020FDF7BEFA0028ACD0FB
:10ACF000C37B012BF8D1436ADB06F5D50678FF2E1E
:10AD0000A3D0304601A9FDF79BFA00289DD1019CF4
:10AD1000636A204623F010036362FFF771FB30463D
:10AD200004F13401FFF704FD8FE7877907BB594A27
:10AD3000D46FD767C6B1204646F48056FDF7D2FCE3
:10AD4000E66084F8727040F20121204601AACDE944
:10AD50000146B5F043FCA368394643F480632046BE
:10AD6000A360FFF7CBFA70E72046FFF7D5FD6CE74D
:10AD70004FF6FF73408C984211D0FDF793FA70B1F3
:10AD8000444A0B4692F8834002F167006032012C7E
:10AD900018BF0246FF210020FFF7A4FE55E73E4BF7
:10ADA000223451F8042BA14243F8042BF9D10A882C
:10ADB0001A804AE7B0F80300FDF7D0F900283FF405
:10ADC00044AF40F20911B4F8053090F87020A0F8B3
:10ADD0006C308DF80420ADF80630227AE37943EA2E
:10ADE0000223ADF80830A27A637A43EA0223ADF871
:10ADF0000A30227BE37A43EA0223ADF80C3001AA41
:10AE00002648B5F0EBFB20E78088FDF7A7F900287E
:10AE10003FF41BAF90F87020A3798DF8042040F226
:10AE200007218DF8053001AAEAE78088FDF796F939
:10AE300000283FF40AAF90F870300E218DF80430EE
:10AE4000D4F8063001AACDF80530D4F80A30CDF890
:10AE50000930D5E78088FDF781F900283FF4F5AE89
:10AE600090F870304FF403718DF80430E37801AA44
:10AE70008DF80530A3798DF80630E3798DF8073029
:10AE8000237A8DF80830637A8DF80930A37A8DF82B
:10AE90000A30B5E7081200208E120020CC120020E4
:10AEA0007FB5024618B1022808D004B070BD032156
:10AEB000384804B0BDE87040B5F048BB364C04F1EA
:10AEC0004800B5F074FC002852D0827901900C3211
:10AED000835C85180F2B0CD8042B0ED9053B0A2B4D
:10AEE0000BD8DFE803F0300A0A300A0A0A0A0A130C
:10AEF0002D00302B27D03E2B2AD061F04DFD019B39
:10AF00008342D2D001A8B5F034FCCEE7AB78A3637E
:10AF1000B5F803309AB2102AEFD040F603418A42C6
:10AF2000EBD06A79ADF80C30B4F856308DF80A20C1
:10AF3000052102AA1748ADF80830B5F04FFBDCE751
:10AF4000EB78A363D9E7284601A9FFF743FED4E7CE
:10AF50000024124E019B3BB1284656F8043B01A940
:10AF600001349847102CF5D101A8B5F002FCC4E7D4
:10AF7000236C002B99D004F14000B5F018FC02902E
:10AF8000002892D0D4F808310BB198478DE702A879
:10AF9000B9E700BFCC1200200812002014650C088D
:10AFA0002DE9F04F914287B00F4615461E46BDF879
:10AFB00040B0BDF84490BDF8488000F2848040F66F
:10AFC0007A428B1F9BB293427DD8B5F5486F7AD8F1
:10AFD000B6F5FA7F77D240F67642ABF10A039BB220
:10AFE000934270D8731C9BB26B43B3EB8B0F6ADA3E
:10AFF000C14568D8FF2810D1364BA3F86E10A3F8CE
:10B000007050A3F87260A3F874B0A3F87690A3F818
:10B010007880002007B0BDE8F08FFDF7ADF804465A
:10B02000002850D090F873302A46012BCDE90198C2
:10B030003346CDF800B008D1FDF73EFF0028E9D136
:10B04000A4F86890A4F86A80E3E7FDF735FFA368E9
:10B0500013F4004339D11F4A042192F824A1184661
:10B060000AF1010A5FFA8AFABAF1010F38BF4FF00C
:10B07000010A82F824A110220593B5F024FD0146AF
:10B0800028B34FF0050C8079059B0C300A1882F824
:10B0900002C04FF00C0CD37001F800C012201071E8
:10B0A000082053709071D371204682F805A0178153
:10B0B00055819681A2F80EB0FFF794FBA36843F484
:10B0C0000043A360BCE72120A4E70220A2E71A20E6
:10B0D000A0E700BF081200201FB54389029303892F
:10B0E0000193C3880093838842880188FF20FFF77B
:10B0F00057FF0446024864F0DDFF848004B010BDB1
:10B10000200206001FB501460078FF2817D0B1F8CD
:10B110000B300293B1F809300193B1F80730009376
:10B12000B1F80530B1F80320B1F80110FFF738FF8E
:10B130000446044864F0BEFF848004B010BD21249E
:10B14000F7E700BF2002060670B50A2205460E4644
:10B1500000200421B5F0B7FC0146B0B1847900228B
:10B160000C340319052098700620DA700855012068
:10B17000187102205E7198715A702846BDE87040BF
:10B18000DA711A725A72FFF72DBB70BDF8B5054619
:10B190000F46164604210A220020B5F094FC014611
:10B1A000A8B1847900220C34031905209870062078
:10B1B000DA7008551320187102205F7198715A7067
:10B1C0002846DA711E81BDE8F840FFF70BBBF8BDD9
:10B1D00000232DE9F04FDFF8988191B0CDE90633D7
:10B1E000CDE90833D8F80430054613F008090CD02F
:10B1F00008F5967308F59E7853F8042B434545F8F7
:10B20000042BF9D111B0BDE8F08F032009F046F905
:10B21000B5F01DFD07460028F4D0062009F03EF9E0
:10B22000B5F015FD064618B93846B5F012FDE9E748
:10B23000CDE9049913F090F820B13846B5F009FD36
:10B240003046F2E74FF4A053DFF828A11022C6E9F8
:10B25000023A454B3046336006A904AB77F0CAFB8F
:10B260000446A8B952463846049977F05AFE044677
:10B2700070B9CA46D8F82C301FFA89F2D9889142A1
:10B2800027D810222946384605AB77F076FE0446CB
:10B29000384677F09EFD3846B5F0DBFC304678F056
:10B2A0003AFC3046B5F0D5FC049811F051FF002C63
:10B2B000A8D12E4B05F1100255F8041B954243F816
:10B2C000041BF9D1D8F8043043F00803C8F804305F
:10B2D00098E71A681FFA89FB4FEA0B1102EB0B1B68
:10B2E000BBF80200ADF80EA001910092FCF7DCFF64
:10B2F00004465846FCF7A8FE30B3DDE90021A4F56A
:10B3000020539BB2032B02D9B4F5245F1FD1535AAB
:10B3100000205946ADF828300DF10E020DF10D0355
:10B32000ADF82A40FDF75CF9BDF80E2001460BA8E8
:10B33000AFF01BFFBDF80E20384604320AA977F0A3
:10B34000F3FD04460028A3D109F1010992E704F5B1
:10B350005643FF339BB2042BF6D8535AADF82A401C
:10B36000ADF82830E6E700BF002480003413002049
:10B37000081200200002C0031FB504466846FFF70C
:10B3800027FF1022694604F12100AFF081FEB0FAD8
:10B3900080F0400904B010BD2DE9F3470F469046F8
:10B3A0009946054618B1037C012B00F09E806B691D
:10B3B000781E43F004036B6180B2FCF76BFE064617
:10B3C00058B1B6F902304088002B42DBFCF7FEFD95
:10B3D00042F6030398423CD1367B00223946284688
:10B3E000FCF790FF82463846FCF754FE4088FCF795
:10B3F0005BFF42F6052398422DD116F0300F36D16F
:10B40000B3066AD51AF0020F69D0EA8B002A68D118
:10B410006B890321033B9BB24B45009228BF4B46EF
:10B4200042461D20FDF7BBF9014600285BD0A0F87D
:10B4300001702846FFF749FA0446002843D1024626
:10B4400047F2305340F20A412868EF836FF06AFAFE
:10B4500039E00026C1E795F82030D807CDD5284639
:10B46000FFF78AFF0028C8D141F212142BE01AF02E
:10B47000030FC5D03846FCF70DFE014658B3FCF764
:10B48000E3FD40B38A8812F4E04F02F4005109D181
:10B4900071B95204B4D52B6893F975300133AFD12B
:10B4A00008240EE02868FCF793FF044639B140B940
:10B4B0002B6893F874309907EBD4052401E0002839
:10B4C000E7D004F588546B6923F004036B612046D0
:10B4D00002B0BDE8F0870124F3E72124F3E702245A
:10B4E000F1E70524EFE71A24EDE70724EFE770B54D
:10B4F00004460078FCF740FEC0B1856CB5B1B4F8E5
:10B5000001603046FCF7ECFD90B16A89E378033ABC
:10B5100092B293420FD8221D31462846FFF73CFFD6
:10B520000446064864F0C6FD848070BD2524F8E713
:10B5300041F20114F5E74924F3E700BF20020A10A5
:10B5400073B5124B0E4605460446019398B1FFF7BA
:10B5500013FF70B9002231462046FCF7D3FE0228C3
:10B5600006D10423314620460DEB0302FFF714FFFA
:10B570000DB102B070BD2046FCF7AFFC04460028B8
:10B58000F7D0FFF7F9FE0028F5D1E3E70100FFFF50
:10B59000213001B91CE610220021AFF0A3BD002329
:10B5A00010B590F8202041FA03F4E40703D442FADE
:10B5B00003F4E4070DD40133082BF4D101F00101A9
:10B5C0000A4380F8202011B10021FFF7E1FF00209D
:10B5D00010BD1320FCE770B4E8B100291BDB0F4D50
:10B5E000ED6A2D7E8D4216DD3F2914DC032601F025
:10B5F000030500EBA10191F831406D00AE4002F06F
:10B60000030224EA0604AA40224381F8312013B140
:10B6100070BC0021BCE770BC704700BF081200205E
:10B620002DE9F04122F000430D46114640F203227D
:10B630009342044688B000F09680B3F5017F0CD2A7
:10B6400040F20122934200F08E8040F202229342A7
:10B650001ED0002008B0BDE8F0816FF48162134471
:10B66000012BF6D8037C012BF3D00123037440F2A5
:10B670000943994200F0AD8040F20A439942E8D173
:10B6800050F80C3B04AA93F870308DF81030A9E004
:10B6900000F121052846FFF79BFD42F60520FDF746
:10B6A00063FA064604A8FFF793FD102229460DEB26
:10B6B0000200AFF0EDFC08B320460121FFF768FF60
:10B6C00042F60520FDF750FAA0B10021FCF7F1FD8C
:10B6D000014605462046FCF711FC074610220021D2
:10B6E00004F13100AFF0FEFC00233A462946204623
:10B6F000FFF771FF636923F00103636142F60303FF
:10B70000022003A9ADF80C30FDF7DCF9012507464E
:10B710004FF0000828463A464FF6FF71FCF7F1FC5F
:10B720000546002895D0FCF7DBFC0135ADB20028BA
:10B73000F0D0AE4203D131462046FFF701FF294643
:10B7400020460DF10E02ADF80E80FCF7DBFD03463E
:10B750000028DFD0BDF80E202946009220460122A5
:10B76000FDF76BF8D6E763699B0704D540F2094102
:10B770002068B4F0C2FE002D3FF46BAFAC6C002C1F
:10B780003FF467AF194E2068836C9C4219D16368FF
:10B79000836422463146B4F0E9FE04F10C00B4F0B3
:10B7A00009FF04F14400B4F0E4FF2046B5F051FA7B
:10B7B000AC6C002CE7D103212846FEF79FFD48E73B
:10B7C0001346002BE5D05A689442F9D162685A605A
:10B7D000DFE74FF4816150F80C3B04AA93F8703016
:10B7E0008DF81030B4F0FAFE33E700BF21B6000840
:10B7F0002DE9F043044689B008460F4616460393E8
:10B80000FCF748FC054618B15CB1FCF71DFC40B9DB
:10B8100003A8B4F0AEFF4FF00108404609B0BDE800
:10B82000F0832B7A072B05D8DFE803F01D2F3A446D
:10B83000231D1D2976BB0398002841D1324695F877
:10B840000880B8F1020F78D0B8F1030F79D0B8F1C1
:10B85000010F45D0002C40F093804FF0000803A862
:10B86000B4F087FFD9E703A8B4F083FF4FF00308D3
:10B87000D3E703A8B4F07DFF4FF00608CDE703A897
:10B88000B4F077FF4FF08008C7E7EB68B3F80280A9
:10B89000B0450BDA03A8B4F06CFF4FF00708BCE723
:10B8A000EB689A88B242F5D3B3F80280039840B9A6
:10B8B000024609E0022EEDDC039870B90246BEE7AD
:10B8C000B046B4F0C2FF82B293194345B7DD03A876
:10B8D000B4F04FFF4FF00D089FE74FF00208F0E77C
:10B8E000E8680630002303993044B4F038FF002C98
:10B8F000B3D02B7A032B43D12E4642F6030903A87B
:10B90000B4F037FF2C4BDB6AD3F80080464505D9ED
:10B910007088FCF7C9FC484530D11036697B204659
:10B92000FCF7ECFA368803460122314620460097A0
:10B93000FCF783FF4FF000086FE7E868B3188380D7
:10B94000CFE7039B9A79D979891AC9B2481E012891
:10B9500011D8134402291A7B04BF5B7B42EA0322FD
:10B960002B7B32EA03037FF47AAF01232046697B05
:10B97000FFF731FEBBE74FF00D0870E7103EC5E75B
:10B98000204650F80C1B227F91F87010039B8DF815
:10B9900014108DF8182040F2015105AA0493ADF857
:10B9A0001670ADF81A600793B4F018FE0028C1D1E4
:10B9B00004A8B4F0DEFEBDE708120020002170B537
:10B9C000421D037904460846B5F0E7F80546A8B1DC
:10B9D00042F62A30FDF7C8F82688864210D06288E1
:10B9E0002B4631460020FFF703FF044608B100F55F
:10B9F0008854054864F05EFB848070BD1A24F8E723
:10BA000041F20314F5E700BF20020A0230B50446F4
:10BA100085B06846FFF7DCFB10216846B5F0D2F828
:10BA20002046FCF737FB6B46C26804AD06321C4665
:10BA300003CCAC4210605160234602F10802F6D1FB
:10BA400005B030BD37B50488458842F62A30FDF789
:10BA50008BF8844201D1FFF7D9FF214600200DF178
:10BA600005030DF10602FDF795F89DF805402CB988
:10BA7000BDF8061039B90A460C460CE0002204F560
:10BA80008854114607E08D420BD8491B89B2F8292A
:10BA900028BFF8214219054864F050FB848003B0A8
:10BAA00030BD224641F20714EBE700BF20030A0035
:10BAB0002DE9F043002689B01546012204460F46C1
:10BAC0000393ADF81660FCF790FC8DF81500002884
:10BAD0003CD142F62A30FDF747F8874201D1FFF703
